:020000040800F2
:102000000004002047210008892300088B230008D2
:102010008F23000893230008972300080000000086
:102020000000000000000000000000009B230008EA
:102030009D23000800000000632100089F23000882
:102040006721000867210008672100086721000850
:102050006721000867210008B3230008CB2300088C
:10206000E3230008FB2300081B2400086721000865
:102070006721000867210008672100086721000820
:10208000672100086721000867210008A7230008CE
:10209000A923000867210008672100083B240008E5
:1020A00067210008672100086721000867210008F0
:1020B00067210008672100086721000867210008E0
:1020C00067210008672100086721000867210008D0
:1020D00067210008672100086721000867210008C0
:1020E000772400086721000867210008672100089D
:1020F00067210008672100086721000867210008A0
:1021000067210008B1230008672100086721000843
:10211000672100086721000867210008672100087F
:10212000672100086721000867210008672100086F
:10213000DFF80CD007F094FE00480047D3210008D8
:1021400088100020704708488047084981F30888B4
:1021500007480047FEE7FEE7FEE7FEE7FEE7FEE78B
:10216000FEE7FEE7FEE7FEE74521000888100020B5
:10217000312100081FB50120ADF80C0003208DF8B7
:102180000E0048208DF80F0003A9394805F044FDE2
:102190000021022005F054FE0120019000208DF85E
:1021A00008000C208DF8090001208DF80A0001A814
:1021B00005F068F906208DF8000000208DF8010078
:1021C0008DF8020001208DF80300684604F0FBFC46
:1021D0001FBD10B500F0ACFA00202649086000F0E1
:1021E000E3FC00F0F2FA00F0A5FA012021490860B2
:1021F00002F007FB04F01EFA01F08EF9032001F053
:1022000066FA01F0BDFA01F0D7FD01F0DBF81AA083
:1022100000F08BFF21A000F088FF28A000F085FFD0
:102220002FA000F082FF33A000F07FFF37A000F066
:102230007CFF3DA13FA000F078FF44A146A000F044
:1022400074FF0DA000F071FF4949488802F05FFB60
:1022500003F014FC04F00EFC012000F070F901F012
:102260003DF944A000F061FF00F0B9FA002010BD74
:1022700000100140140000202A2A2A2A2A2A2A2A89
:102280002A2A2A2A2A2A2A2A2A2A2A2A2A2A2A2AAE
:102290002A2A2A2A2A2A2A2A0D0A00004350553AB5
:1022A0002053544D3332463130335243543620613B
:1022B00074203732204D487A090D0A00426F61724E
:1022C000643A20544D435320202020426F617264B1
:1022D000202856657273696F6E3229200D0A00003E
:1022E000456469746F723A20547375690909090964
:1022F000090D0A00436F6D70616E743A20544D43AE
:102300005309090909090D0A000000005368656CAA
:102310006C3A205368656C6C2056657273696F6EF9
:10232000310909090D0A00004A756C20313220324A
:1023300030313500436F6D70696C652044617465A0
:102340003A202573092020200D0A000031363A3347
:10235000383A323100000000436F6D70696C6520BF
:1023600054494D453A202573092020200D0A0000CC
:102370004001002053746172742075744F732E2EC7
:102380002E2E2E2E0A000000704700BFFEE700BF71
:10239000FEE700BFFEE700BFFEE77047704710B5DD
:1023A00000F0D2F910BD704710B502F0E3FA10BD8D
:1023B000704710B5012005F0CBF810B131A000F046
:1023C000B4FE012005F0D5F810BD10B5022005F0CF
:1023D000BFF810B12FA000F0A8FE022005F0C9F848
:1023E00010BD10B5042005F0B3F810B12DA000F019
:1023F0009CFE042005F0BDF810BD10B5082005F0C6
:1024000098F830B12B484078012802D12AA000F07A
:102410008CFE082005F0ADF810BD10B5102005F0B9
:1024200088F830B12848C079012802D127A000F0EF
:102430007CFE102005F09DF810BD10B5402005F081
:1024400078F830B120484078012802D123A000F06C
:102450006CFE202005F06DF830B11B480079012892
:1024600002D122A000F061FE202005F082F8402079
:1024700005F07FF810BD10B54FF4804005F079F8F5
:1024800010BD00004D6F746F725820466C61670A72
:10249000000000004D6F746F725920466C61670A2E
:1024A000000000004D6F746F725A20466C61670A1D
:1024B00000000000700E0020494F425553415F411B
:1024C0003020494E540A00007C0E0020494F4255EE
:1024D00053425F413220494E540A0000494F425551
:1024E00053425F413020494E540A0000494F425543
:1024F00053425F413120494E540A000006E0062154
:1025000000BF0A00A1F10103D9B2FAD10200A0F183
:102510000103D8B2F3D1704730B5044609E0142561
:1025200002E03220FFF7EAFF2800A5F10101CDB259
:10253000F7D12000A4F10101CCB2F0D130BD10B52B
:1025400004460BE0FA20FFF7E7FFFA20FFF7E4FF6D
:10255000FA20FFF7E1FFFA20FFF7DEFF2000A4F1E9
:102560000101CCB2EED110BD08B5674867490860DB
:102570004FF4004066490880644800680C306549A3
:10258000086063480088ADF8000003208DF8020061
:1025900010208DF8030069465C48006805F03CFB9C
:1025A00008BD10B505F0A4FC4FF4803005F0C0FC68
:1025B00005F0FDFC0446012C3BD1102004F0F6FF91
:1025C000022004F0DFFF002005F037FD002005F0B9
:1025D00046FDA00205F03AFDE00305F05AFD4FF478
:1025E000E011200405F00CFD012005F015FD00BFF1
:1025F000392005F0C0FC0028FAD0022005F00FFDBC
:1026000000BF05F015FD0828FBD10121052005F0CC
:10261000D9FD0121082005F0D5FD0121102005F08C
:10262000D1FD0121202005F0CDFD0121022005F082
:10263000D6FDFFF799FF10BD1FB59C20ADF808002F
:102640000020ADF80400ADF80A00ADF8060001A9BD
:10265000314806F079F801212F4806F051FC01219C
:102660002D4806F049FB2D482849086080152C4963
:1026700008802C482C490860244800680C302B49FD
:102680000860274801882148006805F070FB24484D
:102690000088ADF8000003208DF8020010208DF8AE
:1026A000030069461948006805F0B6FA1C4801881D
:1026B0001648006805F05BFB1FBD10B56FF0040005
:1026C00004F0CCFA42F228304FF0E02148610020BB
:1026D00088610846006940F0010008610846006909
:1026E00040F00200086110BD10B545F2555005F0EC
:1026F000DFFB032005F0DFFBC82005F0DFFB05F062
:10270000E0FB05F0E3FB10BD0010014000000020DD
:1027100008000020040000200004004000080140E0
:1027200010000020E92F0008900000200C0000207D
:1027300072B6704762B67047EFF3108072B670479A
:1027400080F310887047000010B5FFF7F1FFB34821
:102750000068401CB1490860B148006840F00100C1
:10276000AF490860AF480068401CAE4908600A28BD
:1027700025D100200860AA48006840F00200A8495E
:102780000860A9480068401CA74908600A21B0FBFE
:10279000F1F201FB120090B9A148006840F004007A
:1027A0009F490860A0480068642808D100209E491D
:1027B00008609B48006840F00800994908609B4801
:1027C000006808B1FFF7B6FF10BD10B5FFF7E9FECE
:1027D00000F088F9FFF730FFFFF76FFF10BD66E0EC
:1027E0008F48006800B962E08D48007810F0010F52
:1027F00007D08B48006820F001008949086000F08C
:102800004AFB8748007810F0020F07D08448006820
:1028100020F002008249086000F03EFB804800780A
:1028200010F0040F07D07E48006820F004007C49B7
:10283000086000F039FB7A48007810F0080F07D0E4
:102840007748006820F008007549086000F030FB08
:102850007348007810F0100F11D07148006820F014
:1028600010006F49086000F03DFB7148006828B116
:102870006B48006840F010006949086017E068483C
:10288000007810F0200F11D06548006820F020007B
:102890006349086000F027FB6648006828B160487B
:1028A000006840F020005E49086000E000BF97E744
:1028B00010B50446FFF73CFF0120A0405C490968C1
:1028C00008435B4908605648006840F010005449CE
:1028D00008605648006808B1FFF72CFF10BD10B51E
:1028E0000446FFF725FF0120A040514909688143B4
:1028F0004F4801604D48006808B1FFF71BFF10BD4D
:102900000146012088404A4A12781040C0B2704700
:1029100010B50446FFF70CFF0120A04045490968A7
:102920000843444908603E48006840F020003C49A4
:1029300008603E48006808B1FFF7FCFE10BD10B506
:102940000446FFF7F5FE0120A0403A49096881439B
:10295000384801603548006808B1FFF7EBFE10BD4C
:10296000014601208840334A12781040C0B27047B7
:1029700010B50446FFF7DCFE0120A0402E4909688F
:1029800008432D4908602948006808B1FFF7D2FEC6
:1029900010BD10B50446FFF7CBFE0120A04026492C
:1029A00009688143244801602048006808B1FFF7A6
:1029B000C1FE10BD0146012088401F4A1278104018
:1029C000C0B2704710B504461C48008810B1A42856
:1029D00022D110E01148006819490860084619A181
:1029E00002681B4807F07CFA194800F087FBA42016
:1029F0001249088000BF0948006811490968401A57
:102A0000A04201D8002010BD12A000F08EFB0020D3
:102A10000A4908800120F6E70020F4E718000020AA
:102A20002C0000201C0000202000002014000020AA
:102A30003000002034000020380000202800002052
:102A4000240000204974696D65203D2025640A003A
:102A50009401002054696D652066696E7368656431
:102A60000A00000008B50121042005F0ABFB03209B
:102A70008DF802004FF40070ADF8000018208DF8BA
:102A800003006946524805F0C7F84FF48060ADF87E
:102A9000000004208DF8030069464D4805F0BCF89D
:102AA00008BD7FB505460C460121880305F08AFB69
:102AB00000940020ADF80400ADF80600ADF8080061
:102AC000ADF80C000C20ADF80A006946284606F067
:102AD00038FC4021284606F0A8FD0121284606F0D2
:102AE000BCFC7FBD10B5FFF7BDFF4FF4E1313948A5
:102AF000FFF7D7FF10BD70B504460D46E1B235486B
:102B000006F018FD00BF8021324806F081FD002844
:102B1000F9D0204670BD00B585B001208DF81200B7
:102B20008002ADF8100018208DF8130004A92A487F
:102B300005F072F84FF40060ADF8100004208DF835
:102B4000130004A9244805F067F84FF4E130009021
:102B50000020ADF80400ADF80600ADF80800ADF8AF
:102B60000C000C20ADF80A0069461C4806F0E9FB91
:102B700040F22551194806F08BFD40F227711748A5
:102B800006F086FD40F22661144806F081FD012220
:102B900040F22551114806F06CFC01210F4806F067
:102BA0005CFC05B000BD704710B54FF400518803C0
:102BB00004F03CF84FF4C06004F000F810BD10B50C
:102BC00000F068F9FFF7EFFF00F01EF810BD0000FD
:102BD000000801400038014000100140004800405A
:102BE0000A49088000BF0949091F098811F0800FB0
:102BF000F9D070470649088000BF0549091F0988B8
:102C000011F0800FF9D07047704700000438014080
:102C1000044800402DE9F041B3480088412879D0AC
:102C200005DC48B12B280BD0382879D12CE0482876
:102C300077D05528F9D1D7E02B20AB49088000BFC9
:102C4000AA480078012802D00020BDE8F0810020C9
:102C5000A6490870A6A000F051FA0020A749086014
:102C600009E10020A6490860FBE0A649A44A1268D1
:102C700051F82210A44A1288881A002100F096FF09
:102C800038209949088000BF002001F077F908B189
:102C90000020DAE74FF08040828C994801689BA0C1
:102CA00000F043FAA2489649096850F821004FF015
:102CB0008041898C401A0F2834D99D49904A126866
:102CC00051F822104FF08042928C891AA1F10F0026
:102CD00006F076FF0646974A974B06F07AFE0446C2
:102CE00006F07BFF88490988081A874908809048C0
:102CF000834A126850F822004FF08042928C801A6A
:102D00000F3881000022012000F038FF4120764971
:102D1000088000BF002001F031F9E8B3002094E7FB
:102D2000B5E038E082487649096850F821004FF054
:102D30008041898C401A052835D27D49704A126835
:102D400051F822104FF08042928C891AC1F105008F
:102D500006F036FF0646774A774B06F03AFE044601
:102D600006F03BFF684909880844674908807048B5
:102D7000634A126850F822004FF08042928C801A09
:102D8000C0F1050081000022104600F0F7FE482047
:102D90005549088000BF00E005E0002001F0EEF892
:102DA00008B1002051E74FF08040828C5448016800
:102DB00062A000F0BAF91DE06948007830B96948AE
:102DC00000886949088001206549087067480088C3
:102DD000401C6649088000220121084600F0CEFE12
:102DE00055204149088000BF002001F0C7F808B114
:102DF00000202AE74FF08040818C4D48404A1268FD
:102E000050F822008142D7D1564800885649098897
:102E1000401A55490880084602883948016854A07C
:102E200000F083F95148018859A000F07EF9C820CC
:102E3000FFF772FB4FF08040828C314801685BA045
:102E400000F073F961A000F070F9002044490870A7
:102E5000464908804449088029480068401C2849A0
:102E60000860274800680728FFF4FFAE2348006881
:102E7000401C224908602148006842F210718842D3
:102E8000FFF4EFAE0020184908800120DDE600BF06
:102E90000020DAE67047704710B5FFF7BBFE03F07D
:102EA0004BF803F0BAF810BD10B501F091FD10BD5C
:102EB00010B54748006800684649098848404449B9
:102EC0000968086000F001FB0021012000F0EBFD23
:102ED0000446224640A1434807F002F8414800F06A
:102EE0000DF910BD704770478E000020740000205F
:102EF0004D756C746920746573740A008400002039
:102F0000800000203C0000207C0000204E756D6297
:102F100065722027256427206D6F76652073746F96
:102F2000703120436F756E74203D2025640D0A00BA
:102F3000580000209A999999999909404E756D62A7
:102F400065722027256427206D6F76652073746F66
:102F5000703220436F756E74203D2025640D0A0089
:102F600088000020180000208A0000208C0000202B
:102F70004E756D626572202725642720546F746139
:102F80006C5F54696D65203D2025640D0A000000CA
:102F90004E756D62657220737465705F436F756EF8
:102FA00074203D2025640D0A000000004E756D62FE
:102FB0006572202725642720537461626C65204365
:102FC0006F756E74203D2025640D0A000A0A00000A
:102FD0000400002008000020414253203D202564C9
:102FE0000A0000009401002070B50446FFF7A0FB22
:102FF00000BFE648008810F0010FFAD0E3480088CF
:1030000020F00100E149088000BFE048008810F08E
:10301000010FFAD0DE4800680068DE49098888435D
:10302000DB4909680860D948008820F00100D749C9
:103030000880002524E000BFD448008810F0010F6C
:10304000FAD014F0010F09D0D14800680068D149C6
:1030500009880843CE490968086008E0CC48006840
:103060000068CC4909888843C94909680860641028
:10307000C648008820F00100C4490880681CC5B219
:10308000082DD8DB00BFC148008810F0010FFAD02E
:10309000BF4800680068BF4909880843BC490968FF
:1030A0000860BA48008820F00100B8490880BA4892
:1030B000006808B1FFF73EFB70BD10B5044620461E
:1030C000B6490968884710BD10B504460A2C03D1DB
:1030D0000D20B249096888472046B04909688847E9
:1030E00010BD70B505462C4604E02078AB49096850
:1030F0008847641C20780028F7D170BD70B505465C
:103100002C4603E02078FFF7DFFF641C20780028BE
:10311000F8D170BD0146092903DD01F13700C0B2C5
:10312000704701F13000C0B2FAE70FB43EB507A80E
:103130000090D6E006980078252806D0069911F868
:10314000010B0691FFF7C0FFCBE00698401C0690EC
:103150000078632812D0642819D0732802D0782808
:1031600073D173E0009820C8009003E02878FFF73F
:10317000ABFF6D1C28780028F8D1ADE0009830F83E
:10318000041B8CB20090E0B2FFF797FFA4E0009818
:1031900030F8041B8CB20090632C33DD00208DF8D6
:1031A00008000A2094FBF0F100FB11403030C0B25F
:1031B0008DF807000A2094FBF0F084B20A2094FBFB
:1031C000F0F100FB11403030C0B28DF806000A204B
:1031D00094FBF0F084B20A2094FBF0F100FB114064
:1031E0003030C0B28DF805000A2094FBF0F084B2B4
:1031F0000A2094FBF0F100FB11403030C0B28DF892
:10320000040018E000208DF806000A2094FBF0F17D
:1032100000FB11403030C0B28DF805000A2094FB4D
:10322000F0F084B20A2094FBF0F100FB1140303042
:10323000C0B28DF8040001AD03E02878FFF744FF29
:103240006D1C28780028F8D146E040E0009830F85E
:10325000041B8CB2009014F47F4F1ED000208DF818
:10326000080004F00F00FFF755FF8DF80700241148
:1032700004F00F00FFF74EFF8DF80600241104F054
:103280000F00FFF747FF8DF80500241104F00F0031
:10329000FFF740FF8DF804000FE000208DF80600D6
:1032A00004F00F00FFF736FF8DF80500241104F03D
:1032B0000F00FFF72FFF8DF8040001AD03E0287821
:1032C000FFF702FF6D1C28780028F8D104E006996A
:1032D0000878FFF7F9FE00BF00BF0698401C069073
:1032E00000BF0698007800287FF424AF00903EBC11
:1032F0005DF814FB044606E0214629A0FFF715FF00
:103300003220FFF709F9F7E729E000BF1F480088DE
:1033100010F0010FFAD01D48008820F001001B4971
:1033200008801B48006800681A49098888431849C2
:103330000968086000BF1548008810F0010FFAD036
:103340001248008820F001001049088010480068E9
:1033500000681049098808430D4909680860D4E7E6
:1033600002E00020FFF740FEFBE70EE00E48006899
:1033700000680E49098848400B49096808600CA09C
:10338000FFF7BCFEC820FFF7C7F8EFE710040040C6
:103390000C000020100000201400002090000020ED
:1033A00077726725730A00000400002008000020DF
:1033B000303132333435363738394142434445466B
:1033C0000A00000000B58BB00121084604F007FF99
:1033D0000121042004F0F6FE0320ADF8100048207F
:1033E0008DF8130003208DF8120004A9414804F061
:1033F00013FC4FF48040ADF8100048208DF8130006
:1034000003208DF8120004A93B4804F005FC0E21AE
:10341000012004F015FD4FF48040029000208DF84B
:103420000C000C208DF80D0001208DF80E0002A874
:1034300004F028F828208DF8040000208DF80500FD
:103440008DF8060001208DF8070001A803F0BBFBF2
:103450004FF0804005F0A4F808A805F028FC0020F3
:10346000ADF8200042F20F70ADF824000020ADF856
:103470002600ADF8220008A94FF0804005F064F95D
:1034800000231A4603214FF0804005F0ECFC05A80C
:1034900005F020FC0620ADF81C0005A94FF0804087
:1034A00005F080FB0121880705F0F0FE00220121D4
:1034B000880705F03CFC00204FF080418884012102
:1034C000880705F019FC0BB000BD10B54FF0804027
:1034D000848C214609A0FFF728FE10BD10B50020FE
:1034E0004FF0804188840846818C07A0FFF71DFEBD
:1034F00010BD000000080140000C0140454E432073
:103500003D2025640A000000454E4320636C656140
:1035100072203D2025640A0000B587B00121080310
:1035200004F050FE2020ADF8180003208DF81A009A
:1035300018208DF81B0006A9F84804F06DFB8020C8
:10354000ADF8180006A9F54804F066FB4020ADF878
:10355000180006A9F14804F05FFB4FF48060ADF855
:10356000180003208DF81A0010208DF81B0006A902
:10357000EB4804F051FB4FF48061E94804F0F7FB9D
:103580004FF40060ADF8180006A9E54804F044FBCC
:103590004FF40061E24804F0EAFB4FF48050ADF8CC
:1035A000180006A9DE4804F037FB4FF48051DC48D0
:1035B00004F0DDFB4FF48070ADF8180003208DF8A7
:1035C0001A0010208DF81B0006A9D64804F024FB31
:1035D0004FF48071D34804F0CAFB4FF40070ADF88B
:1035E000180006A9CF4804F017FB4FF40071CD482E
:1035F00004F0BDFB4FF48060ADF8180006A9C9487F
:1036000004F00AFB4FF48061C64804F0B0FB2020B0
:10361000ADF8180003208DF81A0048208DF81B0023
:1036200006A9C04804F0F8FA4020ADF8180006A931
:10363000BC4804F0F1FA8020ADF8180006A9B9489A
:1036400004F0EAFA0120ADF8180003208DF81A0002
:1036500004208DF81B0006A9B24804F0DDFA022010
:10366000ADF8180006A9AF4804F0D6FA0420ADF86A
:10367000180006A9AB4804F0CFFA0021AA4804F0CC
:10368000D4FE0020ADF804004FF48270ADF80600BF
:103690000020ADF808000220ADF80A000120ADF8C6
:1036A0000C004002ADF80E001820ADF8100000200C
:1036B000ADF812000720ADF8140001A99A4804F0F3
:1036C0000FFE0121984804F0B0FE07B000BD10B510
:1036D000044634B1012C12D0022C1ED0032C4CD144
:1036E00029E04FF480718F4804F043FBC820FEF7B7
:1036F00013FF4FF480718B4804F039FB3EE04FF428
:103700000071884804F035FBC820FEF705FF4FF430
:103710000071844804F02BFB30E04FF48061814855
:1037200004F027FBC820FEF7F7FE4FF480617D48C8
:1037300004F01DFB22E04FF480717A4804F019FB7D
:103740004FF40071774804F014FB4FF48061754822
:1037500004F00FFBC820FEF7DFFE4FF480717148C4
:1037600004F005FB4FF400716E4804F000FB4FF4C9
:1037700080616C4804F0FBFA00E000BF00BF10BDA0
:103780000EB50021022004F05BFB01200190002017
:103790008DF808000C208DF8090001208DF80A0032
:1037A00001A803F06FFE0121022004F049FB022072
:1037B000019001A803F066FE0221084604F040FBD8
:1037C0000420019001A803F05DFE06208DF80000A2
:1037D00000208DF801008DF8020001208DF8030013
:1037E000684603F0F0F907208DF80000684603F002
:1037F000EAF908208DF80000684603F0E4F90EBDF0
:10380000002100F1080040F8081C20F8041C0160A9
:103810004FF08A01018141814FF0410181814FF0D8
:103820000001C1814FF0270101824FF0290181740D
:10383000C174017541754FF48161C1824FF0190166
:1038400001764FF02901417681764FF00001C17673
:103850004FF0080141774FF0400181774FF00701A9
:10386000C1774FF0FF0180F8201042F68861418453
:10387000A0F10800704770B504460D4625B1012D32
:1038800018D0022D42D12BE04FF48061244804F07F
:1038900070FA2146244804F0F9FD00BF8021224837
:1038A00004F047FE0028F9D14FF480611C4804F071
:1038B0005EFA2CE04FF40061194804F05AFA2146F0
:1038C000194804F0E3FD00BF8021174804F031FEE1
:1038D0000028F9D14FF40061114804F048FA16E0CD
:1038E0004FF480510E4804F044FA21460E4804F08B
:1038F000CDFD00BF80210C4804F01BFE0028F9D14B
:103900004FF48051064804F032FA00E000BF00BFD7
:10391000054804F0BDFDC0B270BD000000080140C4
:10392000000C0140001001400030014070B5044619
:103930000D46164620463146FFF79DFF072C1ED048
:1039400006DC27D2DFE804F02611181226191A0027
:10395000152C16D004DC082C12D00D2C1AD111E035
:10396000182C10D0192C15D10EE000BF3146C5F32C
:103970000740FFF780FF00BF00BF00BF00BF00BFD0
:1039800000BF00BF00BF00BF3146C5F30720FFF7EF
:1039900072FF00BFE8B23146FFF76DFF00BF00BF06
:1039A00070BD70B504460D4604F1080454F8081CB7
:1039B0002A464FF00100FFF7B9FF34F8041C2A46ED
:1039C0000220FFF7B3FF2A4603202168FFF7AEFF6E
:1039D00021892A460520FFF7A9FF61892A4606208A
:1039E000FFF7A4FFA1892A460720FFF79FFFE1897F
:1039F0002A460820FFF79AFF218A2A461520FFF75A
:103A000095FFA17C2A460920FFF790FFE17C2A461A
:103A10000A20FFF78BFF217D2A460B20FFF786FF48
:103A2000617D2A460C20FFF781FFE18A2A460D209E
:103A3000FFF77CFF217E2A460E20FFF777FF617E8D
:103A40002A460F20FFF772FFA17E2A461020FFF7BB
:103A50006DFFE17E2A461120FFF768FF617F2A464D
:103A60001320FFF763FFA17F2A461420FFF75EFFB4
:103A7000E17F2A461620FFF759FF94F820102A46C6
:103A80001720FFF753FF618CA4F108042A464FF07A
:103A90001800FFF74BFF70BD10B50446214600200B
:103AA000FFF7E9FE10BD2DE9F04106460F46002460
:103AB000002546F020003946FFF7DDFE04462406C7
:103AC0002543072E21D006DC2CD2DFE806F02B118F
:103AD0001B12131C1D00152E19D004DC082E15D046
:103AE0000D2E1FD114E0182E13D0192E1AD111E06B
:103AF00000BF00BF39460020FFF7BDFE0446240486
:103B0000254300BF00BF00BF00BF00BF00BF00BF14
:103B100000BF00BF39460020FFF7ADFE0446240277
:103B2000254300BF39460020FFF7A5FE0446254384
:103B300000BF00BF2846BDE8F08170B505460C46C1
:103B4000164645F050003146FFF795FE3146C4F366
:103B50000740FFF790FE3146C4F30720FFF78BFEC6
:103B6000E0B23146FFF787FE70BD70B504460D46E2
:103B700044F058002946FFF77EFE70BD70B505463B
:103B80000C46164645F040003146FFF774FE3146BC
:103B9000C4F30740FFF76FFE3146C4F30720FFF779
:103BA0006AFEE0B23146FFF766FE70BD70B50446AE
:103BB0000D4629466020FFF75EFE2946C4F3074004
:103BC000FFF759FE2946C4F30720FFF754FEE0B281
:103BD0002946FFF750FE70BD70B505460C461646E7
:103BE00045F068003146FFF746FE3146C4F3074012
:103BF000FFF741FE3146C4F30720FFF73CFEE0B279
:103C00003146FFF738FE70BD2DE9F04105460E46FE
:103C100014461F4645F0820141EA06003946FFF787
:103C20002AFE3946C4F30740FFF725FE3946C4F3A0
:103C30000720FFF720FEE0B23946FFF71CFEBDE883
:103C4000F08170B504460D46164644F0920141EAF3
:103C500005003146FFF70FFE70BD10B50446214642
:103C60007020FFF708FE10BD10B5044621467820ED
:103C7000FFF701FE10BD10B504462146D820FFF71E
:103C8000FAFD10BD10B504462146C020FFF7F3FD34
:103C900010BD10B504462146B020FFF7ECFD10BD65
:103CA00010B504462146B820FFF7E5FD10BD10B55C
:103CB00004462146A020FFF7DEFD10BD10B50446E6
:103CC0002146A820FFF7D7FD10BD70B50646002499
:103CD00000253146D020FFF7CEFD31460020FFF70A
:103CE000CAFD04464FF6FF7000EA0424254331461E
:103CF0000020FFF7C0FD04462543284670BD10B5DF
:103D0000044624B1012C0BD0022C1BD111E0202140
:103D1000284804F012F808B9012010BD0020FCE783
:103D20004021244804F009F808B90120F5E70020F3
:103D3000F3E780211F4804F000F808B90120ECE700
:103D40000020EAE700BF00BF0020E6E710B5044608
:103D50002046FFF7BAFF10F0020F01D1012010BD7D
:103D60000020FCE710B5044624B1012C0BD0022C36
:103D70001BD111E001210F4803F0DFFF08B901203A
:103D800010BD0020FCE702210A4803F0D6FF08B965
:103D90000120F5E70020F3E70421064803F0CDFFFA
:103DA00008B90120ECE70020EAE700BF00BF0020CF
:103DB000E6E700000010014010B57F48FFF720FD46
:103DC00000217D48FFF7EDFD01217B48FFF7E9FD6C
:103DD00002217948FFF7E5FD7849774800F02EFC8D
:103DE00008B1012010BD00217348FFF7DAFD7449C6
:103DF000714800F023FC08B10120F3E701216E486F
:103E0000FFF7CFFD6F496C4800F018FC08B10120A6
:103E1000E8E702216848FFF7C4FD002211460120AF
:103E2000FFF784FD012200211046FFF77FFD0222EB
:103E300000210120FFF77AFD0020FFF746FF012057
:103E4000FFF743FF0220FFF740FF0020FFF721FFAD
:103E50000120FFF71EFF0220FFF71BFF0020C1E734
:103E600010B55548FFF7CCFC00215348FFF799FDEA
:103E700001215148FFF795FD02214F48FFF791FDC1
:103E80000020FFF71BFF0120FFF718FF0220FFF7BC
:103E900015FF4A49484800F0D1FB08B1012010BD88
:103EA00000214548FFF77DFD4549434800F0C6FB2A
:103EB00008B10120F3E701213F48FFF772FD4149B6
:103EC0003D4800F0BBFB08B10120E8E702213A4879
:103ED000FFF767FD002211460120FFF727FD0122B1
:103EE00000211046FFF722FD022200210120FFF7EA
:103EF0001DFD0020FFF7E9FE0120FFF7E6FE02208E
:103F0000FFF7E3FE0020CAE770B505460026284605
:103F1000FFF7DBFE044614F4C07F03D02AA0FFF7AE
:103F2000EDF8072614F4806F03D12FA0FFF7E6F811
:103F3000032614F4006F03D12FA0FFF7DFF8022649
:103F400014F4007F03D131A0FFF7D8F8042614F44D
:103F5000C04F03D131A0FFF7D1F8052614F0080FA8
:103F600003D032A0FFF7CAF8062614F4805F03D10D
:103F700031A0FFF7C3F80126304670BD70B5044686
:103F80000026002521461920FFF78DFD85B2C5F3D7
:103F9000411535B1012D06D0022D06D0032D08D1D3
:103FA00005E0002605E0012603E0022601E00326E5
:103FB00000BF00BF304670BDF80100209400002013
:103FC000CC000020040100205F5FB4EDCEF3D6B832
:103FD000C1EEBBF2D3D0B2BBBFC9D6B4D0D0B5C44A
:103FE000D6B8C1EE0D0A00005F5FCEC2B6C8D4A439
:103FF000BEAF0D0A000000005F5FCEC2B6C8B9FDBB
:10400000B8DFB9D8B1D50D0A000000005F5FC7B7AF
:10401000D1B9CBF8B6A80D0A000000005F5F41BB24
:10402000F242CFE0CAA7B2BD0D0A00005F5F53574E
:10403000B1D5BACF0D0A00005F5FB9FDC1F70D0A17
:10404000000000002DE9F04F85B08246DAF8080044
:104050000490DAF810000390DDE9031005F09CFBF2
:10406000FE49009005F0CEFB4FF08741019005F02E
:1040700093FB029005F0CAFD80460022F84B05F044
:1040800001FC064606F000F8044605F0A6FD00F027
:10409000FF0B584605B0BDE8F08F2DE9F04F89B011
:1040A0008246DAF808000790DAF814000690DDE995
:1040B000061005F071FB019005F0A8FD8046E94A65
:1040C000E94B05F0F8FC06460022E84B05F081FCC0
:1040D0000022E34BCDE9020105F0D4FBCDE9040158
:1040E00005F0D2FF044605F078FD00F0FF0B5846BE
:1040F00009B0BDE8F08F2DE9F04F89B08246DAF8BB
:1041000008000790DAF818000690DDE9061005F0BF
:1041100043FB019005F07AFD8046D24AD24B05F070
:10412000CAFC06460022D14B05F053FC0022CC4BC2
:10413000CDE9020105F0A6FBCDE9040105F0A4FFDD
:10414000044605F04AFD00F0FF0B584609B0BDE8F3
:10415000F08F2DE9FF5F8246DAF800B04FF0814121
:10416000584605F04FFBBD49009005F04BFB4FF062
:104170008F41019005F010FB029005F047FD80464D
:104180000022B74B05F07EFB064605F07DFF044696
:1041900005F023FDC0B20390039804B0BDE8F09F82
:1041A0002DE9F04F8DB08246DAF808B0DAF8040055
:1041B0000B900B9805F02AFDAD4AAE4BCDE90001FE
:1041C00005F007FCAC4AAD4BCDE9020105F001FC5E
:1041D000CDE9040159464FF0814005F0DDFA039026
:1041E00005F014FD8046DDE9042305F064FC064675
:1041F000A34AA44B05F0EDFB0022994BCDE9060143
:1042000005F040FBCDE9080105F03EFF044605F04E
:10421000E4FC80B20A900A980DB0BDE8F08F2DE959
:10422000F04F97B08246DAF800B0DAF81400169032
:10423000DAF804001590584605F0E8FCCDE90801CD
:10424000169805F0E3FCCDE90401159805F0DEFCB5
:104250008046874A874B05F0BCFB874A874BCDE9F0
:10426000000105F0B6FBCDE90201DDE9042305F00C
:10427000B0FB0646844A854B05F01DFCCDE90601DE
:10428000DDE9082305F0FEFA0022814BCDE90A01A1
:1042900005F011FC00227F4BCDE90C0105F00BFC71
:1042A00000227D4BCDE90E0105F093FB00226C4B03
:1042B000CDE9100105F0E6FACDE9120105F0E4FEC2
:1042C000044605F08AFCC0B21490149817B0BDE8FB
:1042D000F08F2DE9F04F97B08246DAF800B0DAF8A7
:1042E00018001690DAF804001590584605F08EFC78
:1042F000CDE90801169805F089FCCDE9040115986F
:1043000005F084FC80465A4A5A4B05F062FB5A4A33
:104310005A4BCDE9000105F05CFBCDE90201DDE976
:10432000042305F056FB0646574A584B05F0C3FBDD
:10433000CDE90601DDE9082305F0A4FA0022544B7B
:10434000CDE90A0105F0B7FB0022524BCDE90C0183
:1043500005F0B1FB0022504BCDE90E0105F039FB11
:1043600000223F4BCDE9100105F08CFACDE9120196
:1043700005F08AFE044605F030FCC0B21490149893
:1043800017B0BDE8F08F2DE9F04F9BB00446E0690F
:104390001A90D4F81480A069199041461A9805F033
:1043A00065FC09D14046199905F060FC04D120460E
:1043B000FFF773FE07463DE1A568D4F80490D4F8F2
:1043C00000A0A66AE0691A90D4F81480A069199038
:1043D0004146284605F0E0F930490E9005F0DCF939
:1043E0000F9005F013FC1F4A1F4BCDE9100105F09B
:1043F00062FBCDE9120105F01CFC8346484605F03E
:1044000005FC1B4A1B4BCDE90A0105F0E2FA1A4AEA
:104410001A4BCDE90C0105F0DCFACDE91001294673
:104420004FF0814005F0B8F90D9005F0EFFBCDE9B4
:104430000E01DDE9102305F03EFBCDE9120105F088
:10444000F8FB17901549504605F0A6F94FF0814149
:10445000129005F0D7F90149139021E00000C04106
:104460000000E03F2B8716D9CEF7304000007040A7
:104470006F1283C0CA211940FCA9F1D24D62503F8E
:10448000F4FDD478E9C6304039B4C876BE9FE63F23
:1044900000001040000038400000F0400000C8421A
:1044A00005F0B0F91690504605F0B0FBCDE90C01CF
:1044B000404605F0ABFBCDE90601484605F0A6FBFA
:1044C000B94ABA4BCDE9000105F083FAB84AB94BB5
:1044D000CDE9020105F07DFACDE90401DDE906230D
:1044E00005F077FAB44AB54BCDE9080105F0E3FAD7
:1044F000CDE90A01DDE90C2305F0C4F90022B04B37
:10450000CDE90E0105F065FA0022AE4BCDE91001B0
:1045100005F0D1FACDE9120105F08BFB159031467B
:10452000504605F039F94FF081410C9005F06AF9D9
:104530000D9005F06BFBCDE910011A9805F066FBB4
:10454000CDE90A01484605F061FBCDE9040130469A
:1045500005F05CFB944A954BCDE9000105F039FA72
:10456000CDE90201DDE9042305F033FA904A914BCD
:10457000CDE9060105F02DFACDE90801DDE90A23B0
:1045800005F027FA8C4A904BCDE90C0105F093FA1F
:10459000CDE90E01DDE9102305F074F9CDE9120132
:1045A00005F047FB14901799159805F0F5F8119050
:1045B000DDE9160105F0F0F831460E90159805F08A
:1045C000EBF80D900E9905F08FF859460F9005F015
:1045D0008BF81090119905F0D9F87C491390149834
:1045E00005F0DAF87A49109005F00CF95946119067
:1045F00005F07AF81290139905F0C8F818907349ED
:10460000189805F0FFF84FF087410C9005F0C4F8BA
:104610000D9005F0FBFA00226E4BCDE90E0105F07E
:1046200031F9CDE9100105F02FFDCDE9120105F0BA
:10463000D4FAC7B238461BB0BDE8F08F2DE9FC5F55
:1046400004468946D9F8200005F0E0FA0746624A98
:10465000624B05F0BEF9054600225E4B05F012F9EB
:10466000824605F0BAFA24F8100FD9F8240005F0B4
:10467000CDFA0746584A594B05F0ABF9824600225D
:10468000544B05F0FFF8054605F0A7FA6080D9F80D
:10469000280005F0BBFA0746514A524B05F099F93C
:1046A000054600224B4B05F0EDF8824605F095FAE1
:1046B000A080D9F82C0005F0A9FA0746484A4A4BD1
:1046C00005F087F905460022424B05F0DBF88246EB
:1046D00005F083FAE080D9F8300005F097FA074634
:1046E0003F4A404B05F075F9054605F076FA208102
:1046F0004846FFF7A7FCA0724846FFF744FEE07269
:104700004846FFF7CAFC20734846FFF7F4FC607385
:104710004846FFF745FDE0814846FFF71AFD207443
:104720004846FFF77CFD60744846FFF7D2FDA07451
:1047300099F80C10481E05F032FA054600222B4B62
:1047400005F0B9F907460022224B05F09BF8824696
:1047500005F043FAE07499F836006075B9F8340052
:1047600005F02EFA07460022214B05F02CF90546EC
:1047700000221F4B05F09FF982460022154B05F0E1
:1047800081F8CDE9000105F028FAA07599F8370005
:10479000E075FF20207641F298306083A4F1100488
:1047A0004FF00000BDE8FC9F6F1283C0CA21194082
:1047B000FCA9F1D24D62503F39B4C876BE9FE63FA6
:1047C0000000594000005840BE9F06400000C8420B
:1047D0000000C0410000E03F11EA2D819997B13FF0
:1047E0008DEDB5A0F7C6B03FF7C610400000A03F62
:1047F00000403F4010B504462146634802F0A1FB4B
:1048000010BD00B587B00121084603F0DBFC012193
:10481000082003F0D7FC0121480603F0E0FC012149
:104820004FF4EA1003F0C7FA4FF48070ADF81800A7
:1048300048208DF81B0006A9544803F0EDF94FF409
:104840000070ADF8180018208DF81B0003208DF8BB
:104850001A0006A94D4803F0DFF94B4802F01CFA94
:104860004B4802F03DFB002049498871C87108722D
:1048700048728872C8728870C87005200871042058
:10488000487103200880404802F01FFA00208DF88C
:1048900012008DF8130001208DF814003D480078B7
:1048A0004001ADF808000020ADF80A004FF6FF7097
:1048B000ADF80C00ADF80E000020ADF8100001209E
:1048C0008DF8150002A802F08AFA324800783249C1
:1048D0000860002048600872487288724FF4C06017
:1048E00002F06CF914208DF8040000208DF805000A
:1048F0008DF8060001208DF8070001A802F063F989
:1049000001220221204802F013FB07B000BD10B5C0
:10491000044600201E49C87034B1012C0CD0022C72
:1049200012D0042C20D117E0052019490871042069
:1049300048710320088017E00520154908710720F9
:104940004871032008800FE00E20114908710720EC
:1049500048710320088007E00E200D4908710720E8
:1049600048710620088000BF00BF0949064802F0D0
:10497000ACF910BD10B5094A0021034802F0EDFB67
:1049800001200749087010BD00640040000C014080
:104990005002002040010020280200203C0200209C
:1049A0003C01002010B502460B460020002100BF4C
:1049B00004E0545C0444A0B24C1CE1B29942F8DB20
:1049C000BB4C24780444A0B2FF2800DDC0B210BD67
:1049D00010B5B8480078012806D1B7A0FEF7A5FBAE
:1049E0000020B449087001E0002010BDFDF7A0FED2
:1049F0001422B649B64804F065FEB5480168B5A072
:104A0000FEF793FBB2484168B6A0FEF78EFBB048B4
:104A1000017AB8A0FEF789FBAD48417AB9A0FEF74C
:104A200084FBAB48817ABBA0FEF77FFBA848C17A24
:104A3000BCA0FEF77AFBA648017BBEA0FEF775FB83
:104A4000A348417BBFA0FEF770FBA148817BC1A0BA
:104A5000FEF76BFB9E48C17BC2A0FEF766FB9C483D
:104A6000017CC4A0FEF761FB9948417CC5A0FEF71C
:104A70005CFB9748817CC7A0FEF757FB9448C17C3C
:104A8000C8A0FEF752FBCBA0FEF74FFB07219048D2
:104A90000B30FFF787FF8E49897C884204D0C6A07F
:104AA000FEF743FB0020A0E78948C07A0F2871D0A9
:104AB0000ADC70D2DFE800F0F029323B444E585C4B
:104AC00062666A70767E8B001F286FD00EDC192814
:104AD0006DD006DC10286BD011286AD013285AD16B
:104AE00090E01A286FD01E28F9D18FE02E2877D0B9
:104AF00006DC202869D0242868D02528EFD1A0E042
:104B0000902876D09E28EAD1BAE0B0A0FEF70DFB3F
:104B10006F490E31481E00F07FFAC1E0B0A0FEF7E9
:104B200004FB6B490E31481E00F0AEFAB8E0B1A0AC
:104B3000FEF7FBFA66490D31481E00F0DDFAAFE0E2
:104B4000B1A0FEF7F2FA624A0E32511E481E00F082
:104B500003FBA5E0B1A0FEF7E8FA5D4A0E32511E54
:104B6000481E00F03BFB9BE0B1A0FEF7DEFA97E0A9
:104B7000B4A0FEF7DAFA00F072FB91E0B6A0FEF7FF
:104B8000D4FA8DE0B9A0FEF7D0FA89E0BCA0FEF718
:104B9000CCFA85E02EE07FE0BEA0FEF7C6FA00F07A
:104BA00065FB7DE0C0A0FEF7C0FA79E038E04CE09C
:104BB00053E05CE0C1A0FEF7B8FA45490D31481E4C
:104BC00000F065FE6CE044E00AE032E035E0C0A0B1
:104BD000FEF7ABFA3E490E31881E00F099FD5FE00A
:104BE000C0A0FEF7A2FA3A490E31881E00F0FAFD85
:104BF00056E04BE0C0A0FEF798FA35480E3000F0C2
:104C0000CAFD4DE0C1A0FEF790FA49E0C4A0FEF74E
:104C10008CFA2F4A0E32511E481E00F02BFB3FE04B
:104C2000C4A0FEF782FA2A490D31481E00F07BFB32
:104C300036E0C5A0FEF779FA32E0C8A0FEF775FAB3
:104C40002EE0CBA0FEF771FA2AE0CEA0FEF76DFAB7
:104C500026E0D1A0FEF769FA22E0D4A0FEF765FABB
:104C60001B4A0E32511E481E00F0A2FB18E0D4A0D1
:104C7000FEF75BFA16490D31481E00F0EFFC0FE01D
:104C8000D4A0FEF752FA00F035FD09E0D6A0FEF7F9
:104C90004CFA00F036FD03E0D8A0FEF746FA00BF5C
:104CA00000BFDC48006808B1FDF744FD00209CE629
:104CB000400100203C01002063616E207265636545
:104CC0006976656420646174610A00003C0200201A
:104CD0005C0200205374644944203D202020256458
:104CE0000A0000004578744964203D202020256496
:104CF0000A000000494445203D2020202020256452
:104D00000A000000525452203D202020202025641B
:104D10000A000000444C43203D2020202020256430
:104D20000A000000446174615B305D203D20256411
:104D30000A000000446174615B315D203D20256400
:104D40000A000000446174615B325D203D202564EF
:104D50000A000000446174615B335D203D202564DE
:104D60000A000000446174615B345D203D202564CD
:104D70000A000000446174615B355D203D202564BC
:104D80000A000000446174615B365D203D202564AB
:104D90000A000000446174615B375D203D2025649A
:104DA0000A000000464D49203D2020202020256497
:104DB0000A0000000A0A0000436865636B6F75749F
:104DC000206973206572726F72210A00696E7374B4
:104DD00072756374696F6E2E2E524F520A00000076
:104DE000696E737472756374696F6E2E2E524F4CB8
:104DF0000A000000696E737472756374696F6E2EB9
:104E00002E4D53540A000000696E737472756374FA
:104E1000696F6E2E2E4D56500A000000696E737435
:104E200072756374696F6E2E2E5341500A00000034
:104E3000696E737472756374696F6E2E2E4741507C
:104E40000A000000696E737472756374696F6E2E68
:104E50002E535441500A0000696E73747275637466
:104E6000696F6E2E2E525341500A0000696E7374A2
:104E700072756374696F6E2E2E5347500A000000DE
:104E8000696E737472756374696F6E2E2E47475026
:104E90000A000000696E737472756374696F6E2E18
:104EA0002E535447500A0000696E73747275637410
:104EB000696F6E2E2E525347500A0000696E73744C
:104EC00072756374696F6E2E2E5246530A0000008D
:104ED000696E737472756374696F6E2E2E53494FC9
:104EE0000A000000696E737472756374696F6E2EC8
:104EF0002E53494F490A0000696E737472756374CA
:104F0000696F6E2E2E47494F0A000000696E737458
:104F100072756374696F6E2E2E43414C430A000014
:104F2000696E737472756374696F6E2E2E53434F7E
:104F30000A000000696E737472756374696F6E2E77
:104F40002E47434F0A000000696E737472756374D4
:104F5000696F6E2E2E43434F0A000000696E737412
:104F600072756374696F6E2E2E434C450A00000003
:104F7000696E737472756374696F6E2E2E56454335
:104F8000540A0000696E737472756374696F6E2ED3
:104F90002E45490A00000000696E737472756374CF
:104FA000696F6E2E2E44490A00000000696E73740A
:104FB00072756374696F6E2E2E53434F530A00004F
:104FC000696E737472756374696F6E2E2E47434FEA
:104FD000530A0000696E737472756374696F6E2E84
:104FE0002E5354434F0A0000696E737472756374D4
:104FF000696F6E2E2E5354434F530A00696E7374BB
:1050000072756374696F6E2E2E6572726F72210AEB
:10501000000000001400002070B505460C46207802
:105020000006617840EA0140A17840EA0120E17879
:1050300040EA01062878022822DCFDA0FEF775F878
:10504000287820B101280AD0022818D10FE0FCA04E
:10505000FEF76BF83146002000F004FE0FE0FBA0E5
:10506000FEF763F83146012000F0FCFD07E0FAA0EE
:10507000FEF75BF83146022000F0F4FD00BF02E0CD
:10508000F8A0FEF752F870BD70B505460C462078C2
:105090000006617840EA0140A17840EA0120E17809
:1050A00040EA01062878022822DCE1A0FEF73DF85C
:1050B000287820B101280AD0022818D10FE0E0A0FA
:1050C000FEF733F83146002000F0E8FD0FE0DFA0E6
:1050D000FEF72BF83146012000F0E0FD07E0DEA0EE
:1050E000FEF723F83146022000F0D8FD00BF02E0B1
:1050F000DCA0FEF71AF870BD70B504460D462078A6
:10510000032825DC2878022822DCDBA0FEF70DF836
:10511000287820B101280AD0022818D10FE0C8A0B1
:10512000FEF703F82178002000F0D4FD0FE0C7A0BF
:10513000FDF7FBFF2178012000F0CCFD07E0C6A0C1
:10514000FDF7F3FF2178022000F0C4FD00BF02E06C
:10515000D0A0FDF7EAFF70BD2DE9F04106460D46EF
:10516000144620780006617840EA0140A17840EAC0
:105170000120E17840EA01073A46CDA1D04804F089
:10518000AFFECF48FDF7BAFF3078032821DC28783E
:1051900002281EDCB8A0FDF7C8FF307820B1012836
:1051A0000AD0022814D10FE0C6A0FDF7BEFF29786F
:1051B000384600F061FE0BE0C6A0FDF7B6FF297887
:1051C000384600F07CFE03E0C6A0FDF7AEFF00BF4E
:1051D00002E0B0A0FDF7A9FFBDE8F0812DE9F041A4
:1051E00004460E46154628780006697840EA0140D4
:1051F000A97840EA0120E97840EA010720780F28E1
:1052000028DC3078022825DC9BA0FDF78EFF307863
:1052100020B101280BD002281BD111E088A0FDF796
:1052200084FF21783A46002000F071FD11E087A04C
:10523000FDF77BFF21783A46012000F068FD08E089
:1052400085A0FDF772FF21783A46022000F05FFD4D
:1052500000BF02E08FA0FDF768FFBDE8F08110B548
:10526000A4A0FDF762FF00F070FC10BD10B500F0C7
:105270006CFC10BD2DE9F04105460E461446297818
:10528000A2A0FDF752FF3178A4A0FDF74EFF2178D0
:10529000A6A0FDF74AFF6178A8A0FDF746FFA17818
:1052A000AAA0FDF742FFE178ACA0FDF73EFF71A098
:1052B000FDF73BFF20780006617840EA0140A178C5
:1052C00040EA0120E17840EA010728783B2825DC04
:1052D0003078022822DC68A0FDF727FF307820B163
:1052E00001280AD0022818D10FE055A0FDF71DFFB4
:1052F00028789E4941F820700FE054A0FDF715FF73
:1053000028789B4941F8207007E053A0FDF70DFF76
:105310002878984941F8207000BF02E05DA0FDF7B1
:1053200004FFBDE8F08170B58EB004460D462178CB
:1053300091A0FDF7FAFE297893A0FDF7F6FE4DA0A7
:10534000FDF7F3FE20783B2825DC2878022822DCB4
:1053500049A0FDF7EAFE287820B101280AD00228EA
:1053600018D10FE036A0FDF7E0FE20787F4951F814
:1053700020600FE035A0FDF7D8FE20787C4951F879
:10538000206007E034A0FDF7D0FE2078794951F87D
:10539000206000BF02E03FA0FDF7C7FE32467EA1BD
:1053A00001A804F09DFD01A8FDF7A8FE0EB070BD98
:1053B0002DE9F04105460E46144629787AA0FDF7FE
:1053C000B4FE31787CA0FDF7B0FE21787EA0FDF719
:1053D000ACFE617881A0FDF7A8FEA17884A0FDF75E
:1053E000A4FEE17887A0FDF7A0FE22A0FDF79DFEB8
:1053F00020780006617840EA0140A17840EA012067
:10540000E17840EA010728783B280DDC3078022853
:105410000ADC19A0FDF789FE307820B1012804D0FC
:10542000022803D10AE1F7E012E1FEE00FE10000FB
:105430006D6F746F72206973206C6567616C0A0010
:105440006D6F746F7220300A000000006D6F746F12
:105450007220310A000000006D6F746F7220320AF2
:10546000000000006D6F746F7220697320696C6CAE
:105470006567616C0A0000007479706520616E6474
:10548000206D6F746F72206973206C6567616C0AA0
:10549000000000007479706520616E64206D6F7487
:1054A0006F7220697320696C6C6567616C0A00001B
:1054B000706172616D65746572203D2025640A001B
:1054C0009401002074797065206973204142530A69
:1054D00000000000747970652069732052454C0A01
:1054E000000000007479706520697320434F4F52AB
:1054F000440A0000736176652061786973207061E9
:1055000072616D657465720A0000000053434F209C
:10551000747970652E2E25640A00000053434F20D5
:105520006D6F746F722E2E25640A000053434F2056
:1055300076616C7565302E2E25640A0053434F202A
:1055400076616C7565312E2E25640A0053434F2019
:1055500076616C7565322E2E25640A0053434F2008
:1055600076616C7565332E2E25640A00700200206A
:10557000500400203006002047434F2074797065A6
:105580002E2E25640A00000047434F206D6F746F74
:10559000722E2E25640A00006162735F706F7320A3
:1055A0003D2025640A00000053434F532074797056
:1055B000652E2E25640A000053434F53206D6F74EF
:1055C0006F722E2E25640A0053434F532076616C70
:1055D0007565302E2E25640A0000000053434F539A
:1055E0002076616C7565312E2E25640A000000005E
:1055F00053434F532076616C7565322E2E25640A15
:105600000000000053434F532076616C7565332EC4
:105610002E25640A00000000AFF2DC10FDF785FDC6
:105620002978AE4840F8217011E0AFF2E010FDF7A4
:105630007CFD2978AA4840F8217008E0AFF2E81014
:10564000FDF773FD2978A74840F8217000BF03E0FB
:10565000AFF2C010FDF769FDBDE8F08170B58EB006
:1056600004460D462178A0A0FDF75FFD2978A2A091
:10567000FDF75BFDAFF20420FDF757FD20783B28D6
:1056800029DC2878022826DCAFF21420FDF74DFD36
:10569000287820B101280BD002281BD111E0AFF2ED
:1056A0006020FDF742FD21788C4850F8216011E020
:1056B000AFF26820FDF739FD2178894850F8216064
:1056C00008E0AFF26C20FDF730FD2178854850F8F6
:1056D000216000BF03E0AFF24420FDF726FD324613
:1056E000AFF24C1101A804F0FBFB01A8FDF706FD89
:1056F0000EB070BD10B584A0FDF717FD00F025FABF
:1057000010BD10B585A0FDF710FD00F01EFA10BD0C
:105710002DE9F04104460D46AF78EE78207890B937
:1057200084A0FDF702FD3EB985A0FDF7FEFC002137
:10573000084601F002F806E083A0FDF7F6FC01211F
:10574000002000F0FAFF2078012812D180A0FDF798
:10575000ECFC3EB97AA0FDF7E8FC0021012000F046
:10576000ECFF06E078A0FDF7E0FC0121084600F020
:10577000E4FF2078022804D132463946002001F0A7
:105780009BF82078032804D132463946012001F0E5
:1057900093F8BDE8F08170B5054628780006697871
:1057A00040EA0140A97840EA0120E978084384B240
:1057B00021466AA0FDF7B9FC032C04DCE1B200200D
:1057C00001F09CF80646042C07DB072C05DC201FA3
:1057D000C1B2012001F092F80646314662A0FDF701
:1057E000A4FC70BD2DE9F04704460E4696F80290E1
:1057F000F778B9F1000F02D14FF0000801E04FF047
:10580000010807B90025012F00D10125022F00D181
:105810000225494658A0FDF788FC294659A0FDF706
:1058200084FC207878B92B4642460021084601F0D6
:10583000D0F842460121574800F064FF2A46022171
:10584000544800F05FFF207804281EDB20780628EB
:105850001BDC2078001FC1B22B464246012001F01C
:10586000B8F82178091F01EB41014B4A88184246DC
:10587000012100F047FF2178091F01EB4101464A51
:1058800088182A46022100F03DFFBDE8F08770B578
:1058900004460D46207801281ADC2878022817DCF7
:1058A000AFF22C40FDF741FC207830B93BA0FDF76A
:1058B0003CFC2878401C3D490870207801280BD119
:1058C0003BA0FDF732FC2878401C3D49087003E0FE
:1058D000AFF24040FDF729FC70BD000060030020DE
:1058E000400500202007002047434F532074797063
:1058F000652E2E25640A000047434F53206D6F74B8
:105900006F722E2E25640A007361766520636F6FB7
:105910007264696E6174650A0000000073617665E7
:1059200020636F6F7264696E61746520617373695F
:1059300073740A007365742042555320410A0000B5
:105940006F75747075740A00696E7075740A000062
:105950007365742042555320420A00006E756D2015
:105960002E2E2025640A0000494F56616C75652E65
:105970002E25640A00000000696E7473202E2E200C
:1059800025640A00696E746D6F6465202E2E2025D3
:10599000640A0000700E00207C0E002072667320E6
:1059A0006E6F726D616C650A00000000440100209A
:1059B00072667320636F6E6669726D0A0000000084
:1059C000450100202DE9F04104260024924F0025D6
:1059D000FCF7AEFE01F0F5FD352002F09AF800BFAD
:1059E00008E08E494FF4806202FB051001F02EFEA4
:1059F00006466D1C022D01D2042EF2D009E0A21041
:105A000057F82210854AA01801F0F6FE0646201D20
:105A100084B2B4F5CC6F01D2042EF0D045F2AA5175
:105A20007F4801F0E9FE7F48006808B1FCF782FE7C
:105A30007DA0FDF77AFBBDE8F08170B50024764DBE
:105A4000FCF776FE06E075482058A11045F82100C5
:105A5000201D84B2B4F5CC6FF5D37248006808B14C
:105A6000FCF768FE70BD6E48008880B2A0F5AA41C0
:105A7000AA3901D1012070470020FCE710B5FFF7DB
:105A8000F2FF002860D0FFF7D8FF4FF4F0726249B0
:105A9000694803F017FE4FF4F0726849684803F054
:105AA00011FE4FF4F0726749674803F00BFE38228D
:105AB0006649674803F006FE382264493831654874
:105AC00003F000FE382261497031624803F0FAFDAC
:105AD00061495148B0F848260A8090F84A06887013
:105AE0004D48B0F84B26A1F8032090F84D064871B8
:105AF0005648A830C288CA80007A08724648B0F872
:105B00005126A1F8092090F85306C872534942481B
:105B1000B0F854260A8090F8560688703E48B0F8CF
:105B20005726A1F8032090F8590648714748B43029
:105B3000C288CA80007A08723748B0F85D26A1F89A
:105B4000092090F85F06C87210BD10B54FF4F072CE
:105B50003949314803F0B6FD4FF4F07238493748FF
:105B600003F0B0FD4FF4F0723749364803F0AAFD58
:105B700038223749354803F0A5FD382235493348E6
:105B8000383003F09FFD382235493048703003F03B
:105B900099FD214830490A88A0F84826897880F87C
:105BA0004A162D49B1F80320A0F84B26497980F810
:105BB0004D1600F5C9602849CA88C280097A017269
:105BC00015482549B1F80920A0F85126C97A80F86E
:105BD000531622490A88A0F85426897880F8561668
:105BE0001E49B1F80320A0F85726497980F85916C4
:105BF00000F254601949CA88C280097A01720648C5
:105C00001649B1F80920A0F85D26C97A80F85F1618
:105C1000FFF7D8FE10BD00001008002000E00308C8
:105C200060E6030814000020D2BBB4CEB4E6B4A2F0
:105C3000CDEAB1CF210A000070020020F009002057
:105C400050040020D00B002030060020B00D0020B2
:105C500094000020CC000020700E00207C0E00205C
:105C6000040100202DE9F84F82468B46584603F088
:105C7000A7FF0646F84AF94B03F0ABFE04460022A4
:105C8000F74B03F0FFFD804603F0A7FF52460146A5
:105C900000900120FDF751FFBDE8F88F2DE9F84F86
:105CA00082468B46584603F08BFF0646EA4AEB4B8A
:105CB00003F08FFE04460022E94B03F0E3FD80462B
:105CC00003F08BFF5246014600900020FDF735FFA0
:105CD000BDE8F88F70B505460C4634B1012C08D0EC
:105CE000022C0AD0032C10D10BE02846FDF7D1FF7F
:105CF0000BE02846FDF7D4FF07E02846FDF7D7FF65
:105D000003E02846FDF7DAFF00BF00BF70BD2DE9B4
:105D1000F04107460E46154627B1012F04D0022F49
:105D200006D103E0CF4C03E0CF4C01E0CF4C00BFE5
:105D300000BF102E14D2DFE806F00814202C313DED
:105D400049556169717981898E94C9A0FDF7EDF992
:105D5000284603F01FFF8046C84903F053FD20602A
:105D600085E0C7A0FDF7E1F9284603F013FF804660
:105D7000C84903F047FD606079E0C7A0FDF7D5F999
:105D8000284603F007FF8046C24903F03BFDA060B0
:105D90006DE0C6A0FDF7C9F9257368E0C8A0FDF75E
:105DA000C4F9284603F0F6FE8046BA4903F02AFDFE
:105DB00020615CE0C8A0FDF7B8F9284603F0EAFED0
:105DC0008046B44903F01EFD606150E0C8A0FDF7B5
:105DD000ACF9284603F0DEFE8046AE4903F012FD22
:105DE000A06144E0C8A0FDF7A0F9284603F0D2FE68
:105DF0008046A84903F006FDE06138E0C8A0FDF741
:105E000094F9284603F0C6FE206230E0C9A0FDF7F1
:105E10008CF9284603F0BEFE606228E0CAA0FDF7B8
:105E200084F9284603F0B6FEA06220E0CBA0FDF77F
:105E30007CF9284603F0AEFEE06218E0CCA0FDF746
:105E400074F9284603F0A6FE206310E0CDA0FDF70C
:105E50006CF9A5860BE0D0A0FDF767F984F8365001
:105E600005E0D3A0FDF761F984F8375000BF00BF0B
:105E7000FDF7F6FFBDE8F08170B505460C4624B18C
:105E8000012C0AD0022C18D10FE0CEA0FDF74DF95D
:105E900000212846FDF78AFE0FE0CDA0FDF745F969
:105EA00001212846FDF782FE07E0CCA0FDF73DF971
:105EB00002212846FDF77AFE00BF00BF70BD2DE924
:105EC000F04104460D46002C00DA0026002C00DBD1
:105ED000012625B1012D10D0022D2AD11BE0B9A039
:105EE000FDF723F9271E01DB384600E07842014622
:105EF00000223046FDF742FE1BE0B5A0FDF715F984
:105F0000271E01DB384600E0784201460122304678
:105F1000FDF734FE0DE0B1A0FDF707F9271E01DB08
:105F2000384600E07842014602223046FDF726FE60
:105F300000BF00BFBDE8F08110B5AB48008830B1AC
:105F4000CF2808D0E62839D0ED2864D156E0CF20FC
:105F5000A549088000BFA548007808B9002010BDF9
:105F6000A2480078012804D0022809D0032815D1BE
:105F70000DE09FA0FDF7D9F80020A14908700DE0C1
:105F8000A0A0FDF7D2F801209D49087006E0A1A06D
:105F9000FDF7CBF802209A49087000BF00BF00202F
:105FA000924908709648037843F26E42012100201E
:105FB000FDF72AFEE6208C49088000BF9048007853
:105FC000FDF7DCFF08B10020C9E796A0FDF7ADF8AA
:105FD0008B480078FDF74FFE894801780120FDF7D6
:105FE00062FD0446224699A19B4803F079FF9A4836
:105FF000FDF784F8ED207C49088000BF3220FCF7D3
:10600000E1FC08B90020AAE7FDF768FA002076490C
:1060100008800120A3E70020A1E710B58F48008881
:1060200040F21312811A904213D003DC38B1FC28DD
:1060300010D108E006290ED00D29F9D180E1FC200D
:106040008649088000BF8648007808B9002010BD46
:1060500008E139E181E151E18DEDB5A0F7C650408D
:106060000000E03F94000020CC000020040100204C
:1060700074797065206973206B650A000050C3470E
:106080007479706520697320696E64756374616EDC
:1060900063650A0000007A44747970652069732092
:1060A000726573697374616E63650A0074797065F3
:1060B000206973206B5F746865726D0A00000000D0
:1060C0007479706520697320686F6C645F637572A2
:1060D00072656E740A00000074797065206973201F
:1060E0006163635F63757272656E740A000000001D
:1060F00074797065206973206465635F637572727B
:10610000656E740A00000000747970652069732060
:1061100072756E5F63757272656E740A00000000BE
:1061200074797065206973206163635F737065655E
:10613000640A000074797065206973206465635F88
:1061400073706565640A0000747970652069732056
:106150006D61785F73706565640A000074797065BD
:10616000206973206D696E5F73706565640A000055
:10617000747970652069732066756C6C5F737065E7
:1061800065640A0074797065206973207374616CAA
:106190006C5F74680A000000747970652069732070
:1061A0006F7665725F63757272656E740A000000C7
:1061B0007479706520697320737465705F6D6F64A6
:1061C000650A00006D6F746F7220580A00000000AD
:1061D0006D6F746F7220590A000000006D6F746F4C
:1061E00072205A0A000000004801002044010020EB
:1061F000582072657365742073746172740A0000AC
:1062000046010020592072657365742073746172B1
:10621000740A00005A207265736574207374617289
:10622000740A0000416C726561647920666F756E56
:106230006420746865205A65726F2C206D6F746FCE
:10624000722073746F707065640A0000616273205D
:106250003D3D2025640A0000940100204C010020EF
:10626000450100203E480078012804D002280AD0C9
:10627000032818D10FE0AFF28800FCF756FF00208A
:10628000384908700FE0AFF28400FCF74EFF0120A0
:106290003449087007E0AFF28400FCF746FF0220A3
:1062A0003049087000BF00BF00202D4908702D48FC
:1062B000037843F26E4201210020FDF7A5FC40F275
:1062C00013102949088000BF26480078FDF756FEC4
:1062D00008B1002010BD25A0FCF727FF2148017858
:1062E0000120FDF7E0FB1F48027800210846FDF77A
:1062F000A8FC40F219101C49088000BF194800781A
:10630000FDF73CFE08B10020E4E71EA0FCF70DFFFE
:1063100014480078FDF7AFFC124801780120FDF722
:10632000C2FB04462246AFF2DC011F4803F0D8FD51
:106330001D48FCF7E3FE4FF490700B49088000BF46
:106340003220FCF73FFB08B90020C3E7FDF7C6F891
:106350000020054908800120BCE70020BAE70000C2
:10636000450100204A0100204C010020416C72656B
:1063700061647920666F756E6420746865205A6563
:10638000726F0A00636F6E6669726D207A65726F54
:1063900020706F696E742C206D6F746F722073742F
:1063A0006F707065640A000094010020002000BF37
:1063B0001EE0012100EB4002FE4B9954002100EB4E
:1063C00040021A445170012100EB40021A449170BE
:1063D00000EB4002F84B9954002100EB40021A44B4
:1063E0005170012100EB40021A449170411CC8B267
:1063F0000428DEDB704708B5F0490968EF4A5268A7
:1064000041EA0200012101F0DDFEED480088ADF80F
:10641000000003208DF8020010208DF80300E949E8
:106420000868694601F0F8FBE54A1188E54A1068FA
:1064300001F09DFCE2484088ADF80000E149486861
:10644000694601F0E9FBDE4A5188DE4A506801F0F6
:106450008EFC08BD08B5DC490968DB4A5268114367
:10646000D94A92681143D84AD26841EA0200012110
:1064700001F0A8FED5490968D44A52681143D34AAD
:1064800092681143D14AD26841EA0200012101F029
:1064900099FE0121084601F095FE0121CC4801F04A
:1064A0008AFCCC480088ADF8000003208DF802007B
:1064B00004208DF80300C8490868694601F0ACFB68
:1064C000C4484088ADF80000C3494868694601F0F7
:1064D000A3FBC0488088ADF80000BF4988686946C2
:1064E00001F09AFBBB48C088ADF80000BA49C86803
:1064F000694601F091FBB9480088ADF80000B84941
:106500000868694601F088FBB4484088ADF800008F
:10651000B3494868694601F07FFBB0488088ADF810
:106520000000AF498868694601F076FBAB48C08837
:10653000ADF80000AA49C868694601F06DFB08BDC6
:106540000EB5A84A1178A84A107801F079FCA7483E
:106550000068019000208DF8080010208DF80900D7
:1065600000208DF80A0001A800F08CFFA04A1178E5
:10657000A04A107801F064FC9F480068019001A8CF
:1065800000F080FF9A4A51789A4A507801F058FCFE
:1065900099484068019001A800F074FF944A9178EE
:1065A000944A907801F04CFC93488068019001A8CF
:1065B00000F068FF914800788DF8000000208DF809
:1065C00001008DF802008DF80300684600F0FBFA28
:1065D0008A4840788DF80000684600F0F4FA874851
:1065E00080788DF80000684600F0EDFA8348C078A6
:1065F0008DF80000684600F0E6FA814800788DF8D2
:106600000000684600F0DFFA7D4840788DF8000011
:10661000684600F0D8FA7A4880788DF8000068461D
:1066200000F0D1FA7648C0788DF80000684600F096
:10663000CAFA0EBD10B5FFF7DEFEFFF70BFFFFF73E
:106640007FFFFFF7B3FE10BD38B504460D461DB9F8
:1066500010208DF8030002E048208DF8030003208D
:106660008DF8020014B1012C4AD124E05948008869
:10667000ADF8000058490868694601F0CDFA554860
:106680004088ADF8000054494868694601F0C4FAF2
:1066900050488088ADF800004F498868694601F08D
:1066A000BBFA4C48C088ADF800004B49C868694641
:1066B00001F0B2FA24E049480088ADF800004849EA
:1066C0000868694601F0A8FA44484088ADF800001F
:1066D00043494868694601F09FFA40488088ADF810
:1066E00000003F498868694601F096FA3B48C08837
:1066F000ADF800003A49C868694601F08DFA00BF5C
:1067000000BF38BD70B504460E46154626B1012EB1
:1067100007D0022E0FD109E03AA0FCF706FD257044
:1067200009E03BA0FCF701FD657004E03BA0FCF72D
:10673000FCFCA57000BF00BF70BD70B504460D46DF
:10674000002D79D129462046FFF77EFF1C4A32F8FA
:1067500014101C4A52F8240001F00BFBB4B90022BB
:1067600011461448FFF7CEFF002211461148C01C05
:10677000FFF7C8FF002211460E48801DFFF7C2FF39
:10678000002211460B480930FFF7BCFF012C53D102
:10679000002211460848FFF7B5FF002211460648BF
:1067A000C01CFFF7AFFF002211460348801DFFF712
:1067B000A9FF3CE0700E00207C0E002064A10008C0
:1067C0008CA10008500100206CA100087CA10008E9
:1067D0000004300090A100085801002098A1000892
:1067E00068010020A4A10008A0A10008A8A1000839
:1067F000BCA10008B8A10008C0A1000878010020D1
:106800007C010020696F5F6D6F64650D0A000000F8
:10681000696F5F696E740D0A00000000696F5F693F
:106820006E746D6F64650D0A0000000004E00022C4
:106830001146C048FFF766FF012D3CD1294620468E
:10684000FFF702FFBC4A32F81410BC4A52F8240089
:1068500001F08DFAB4B901220021B948FFF752FFC7
:1068600001220021B648C01CFFF74CFF0122002185
:10687000B348801DFFF746FF01220021B0480930D0
:10688000FFF740FF012C16D101220021A948093849
:10689000FFF738FF01220021A648801FFFF732FFD3
:1068A00001220021A348C01EFFF72CFF0122002176
:1068B000A048FFF727FF70BD2DE9F04105460C46C3
:1068C00016460027012E01D19E4F00E09E4F15B1C4
:1068D000012D10D107E09D4A32F814109C4A52F85D
:1068E0002400B84707E09B4A32F814109A4A52F83D
:1068F0002400B84700BF00BFBDE8F08170B5064670
:106900000C4616B1012E14D109E0904A32F8141049
:106910008F4A52F8240001F010FA05460AE08D4A29
:1069200032F814108C4A52F8240001F006FA054699
:1069300000E000BF00BF284670BD70B5054615B128
:10694000012D42D120E0814A1188814A106801F06E
:10695000F4F906467D4A51887D4A506801F0EDF908
:1069600046EA4006794A9188794A906801F0E5F94B
:1069700046EA8006754AD188754AD06801F0DDF98B
:1069800046EAC000C4B221E0724A1188724A106817
:1069900001F0D3F906466F4A51886F4A506801F0FA
:1069A000CCF946EA40066B4A91886B4A906801F040
:1069B000C4F946EA8006674AD188674AD06801F080
:1069C000BCF946EAC000C4B200E000BF00BF2046E8
:1069D00070BD2DE9FE4F06460C4617469846B8F1A5
:1069E000000F06D0B8F1010F05D0B8F1020F06D1A3
:1069F00003E0082503E00C2501E0102500BF00BFDF
:106A00006EB9564850F82490554810F804A004EB8D
:106A100044014B4A88183A460121FFF773FE012EC4
:106A20000ED1504850F824904F4810F804A004EBC1
:106A30004401404A093A88183A460121FFF762FEAC
:106A4000CDF8049000208DF808008DF809508DF8DD
:106A50000A7001A800F016FD8DF800A000208DF846
:106A600001008DF802008DF80370684600F0ABF865
:106A7000BDE8FE8F10B53248007830B93BA0FCF776
:106A800054FB00210846FFF758FE2D4800780128E6
:106A900011D13BA0FCF749FB01210020FFF74DFE7F
:106AA00027484078012806D1254883780122002113
:106AB0000846FFF78EFF1F480938007830B935A027
:106AC000FCF733FB00210120FFF737FE1948093896
:106AD000007801282DD134A0FCF727FB01210846BE
:106AE000FFF72BFE134809384078012807D11148D9
:106AF00009388378012200211046FFF76AFF0D480C
:106B000009380079012807D10A4809384379012258
:106B100011461046FFF75DFF06480938C079012885
:106B200007D104480938037A012202211046FFF7F1
:106B300050FF10BD850E00208CA1000850010020E0
:106B4000700E00206F7D0008737D000890A1000882
:106B50005801002098A1000868010020A8A10008A1
:106B600078010020C0A100087C010020696F615FEE
:106B70006D6F6465203D3D206F75747075740A00FB
:106B8000696F615F6D6F6465203D3D20696E747053
:106B900075740A00696F625F6D6F6465203D3D200A
:106BA0006F75747075740A00696F625F6D6F6465EC
:106BB000203D3D20696E7075740A00003149014323
:106BC000314A1160704770B5002100230F22C4784C
:106BD0000CB32D4C246804F4E064C4F5E064210A8D
:106BE000C1F10403CA40447804FA03F184781440E4
:106BF00021430901254C0678A155047804F01F05AE
:106C00000124AC4005786D114FF0E02606EB8505B8
:106C1000C5F8004109E0047804F01F050124AC40E8
:106C20001B4D0678761145F8264070BD194A0A407A
:106C30000243154B1B1F1A60704739B1124A121DCF
:106C400012680243104B1B1D1A6006E00E4A121D0B
:106C5000126882430C4B1B1D1A607047042808D130
:106C60004FF0E021096941F004014FF0E022116189
:106C700007E04FF0E021096921F004014FF0E02224
:106C8000116170470000FA050CED00E000E400E03F
:106C900080E100E080FFFF1F10B50446FD488442FC
:106CA00009D10121480601F0B4FA00214FF000702B
:106CB00001F0AFFA08E00121880601F0AAFA0021EC
:106CC0004FF0806001F0A5FA10BD30B502460020FB
:106CD0000023146824F002041460146844F00104D2
:106CE000146000E05B1C546814F0010F03D1A3F59D
:106CF0007F44FF3CF6D1546814F0010F01D100200D
:106D00006CE08C79012C04D1146844F08004146088
:106D100003E0146824F080041460CC79012C04D1C1
:106D2000146844F04004146003E0146824F0400444
:106D300014600C7A012C04D1146844F0200414600F
:106D400003E0146824F0200414604C7A012C04D170
:106D5000146844F01004146003E0146824F0100474
:106D600014608C7A012C04D1146844F00804146077
:106D700003E0146824F008041460CC7A012C04D1D8
:106D8000146844F00404146003E0146824F004045C
:106D900014608C78A407CD7844EA05640D7944EA40
:106DA00005444D7944EA05540D886D1E2C43D46189
:106DB000146824F001041460002300E05B1C546894
:106DC00014F0010F03D0A3F57F44FF3CF6D15468C3
:106DD00014F0010F01D0002000E0012030BD10B5FB
:106DE0000021837A012202FA03F1AB4A126842F0D1
:106DF0000102A94B1A60A84A1C3212688A43A64BAA
:106E00001C331A60027BCAB9A34A0C3212688A4347
:106E1000A14B0C331A604288C38842EA03439E4A5E
:106E20004032847A42F834300288838842EA03434D
:106E3000994A4032847A02EBC4025360027B012AF1
:106E400019D1954A0C3212680A43934B0C331A60DD
:106E50004288038842EA03438F4A4032847A42F8E8
:106E60003430C288838842EA03438B4A4032847AB2
:106E700002EBC4025360C27A3AB9874A121D126803
:106E80008A43854B1B1D1A6006E0834A121D126857
:106E90000A43814B1B1D1A60028932B97E4A1432A3
:106EA00012688A437C4B14331A600289012A06D186
:106EB000794A143212680A43774B14331A60427BC2
:106EC000012A06D1744A1C3212680A43724B1C33E1
:106ED0001A60714A126822F001026F4B1A6010BDED
:106EE00000218171C171017241728172C172817020
:106EF000C17003210171022141710121018070479C
:106F00006549096841F00101634A11601146096849
:106F100043F60E729143604A11601146096841EAD6
:106F2000002111601146096821F0010111607047CC
:106F30001AB143690B43436102E043698B434361E8
:106F4000704710B502460020936803F08063B3F1E8
:106F5000806F00D110E0936803F00063B3F1006F1D
:106F600001D1012008E0936803F08053B3F1805F02
:106F700001D1022000E00420042874D002F5C0737F
:106F800003EB00131B6803F0010402F5C07303EB6D
:106F900000131C600B7A7BB94B7A0C8843EA44538C
:106FA00002F5C07404EB00142468234302F5C07496
:106FB00004EB0014236010E00B7A4C6843EAC4032E
:106FC0004C7A234302F5C07404EB00142468234375
:106FD00002F5C07404EB001423608B7A03F00F03F6
:106FE0008B7202F5C07303EB00135B6823F00F0490
:106FF00002F5C07303EB00135C6002F5C07303EB92
:1070000000135B688C7A234302F5C07404EB001410
:1070100063608B7B1C064B7B44EA03440B7B44EA96
:107020000323CC7A234302F5C07404EB0014A3605D
:107030008B7C1C064B7C44EA03440B7C44EA032310
:10704000CC7B234302F5C07404EB0014E36002F52B
:10705000C07303EB00131B6843F0010402F5C07317
:1070600003EB00131C6010BD0246002021B1012972
:1070700014D0022930D120E0936803F0010340EAE4
:107080008300936803F0020318439368C3F380639B
:10709000184323E00064004000660040936803F456
:1070A000807340EA9310936803F4007340EA13205E
:1070B0009368C3F3C063184310E0936803F480330C
:1070C00040EA9330936803F4003340EA1340936836
:1070D000C3F30073184301E0002000BF00BF20B1DC
:1070E000052804D0072806D103E0022005E000208F
:1070F00003E0012001E0002000BF00BF704721B184
:10710000012907D002290FD109E0826842F08002EC
:1071100082600AE0826842F40042826005E0826890
:1071200042F40002826000E000BF00BF704711B966
:107130002022C26001E02022026170470246002046
:1071400019B9D36803F0030006E0012903D11369DC
:1071500003F0030000E00020704730B505460C4600
:10716000134605F5D87000EB0410006800F0040029
:107170001872187A50B905F5D87000EB0410006841
:1071800040F2FF7101EA5050186009E005F5D8702F
:1071900000EB041000686FF0604101EAD000586015
:1071A00005F5D87000EB0410006800F0020058727A
:1071B00005F5D87000EB0410406800F00F009872DD
:1071C00005F5D87000EB04104068000AD87405F586
:1071D000D87000EB04108068D87205F5D87000EB09
:1071E00004108068010A197305F5D87000EB0410CB
:1071F0008068010C597305F5D87000EB04108068A5
:10720000000E987305F5D87000EB0410C068D873B1
:1072100005F5D87000EB0410C068010A197405F573
:10722000D87000EB0410C068010C597405F5D870D3
:1072300000EB0410C068000E987421462846FFF742
:1072400076FF30BD21B1026842F48032026003E073
:10725000026822F4803202607047014600200A680A
:1072600022F0010242F002020A604A6802F00302C0
:10727000022A00D10120704701464FF6FF7200201C
:107280000B6823F002030B6000E0521E4B6803F012
:107290000203022B01D1002AF7D14B6803F002034D
:1072A000022B00D0012070470246002093690B4258
:1072B00001D0012000E00020704782698A4382618A
:1072C0007047024600200A4201D0012000E0002061
:1072D000704770B504460D460026402D47D00EDCA1
:1072E000072D2BD006DC042D2FD0052D19D0062D0F
:1072F00061D11CE0082D2ED0202D5CD131E0B5F5F8
:10730000806F46D006DCB5F5807F36D0B5F5007FBE
:1073100051D138E0B5F5803F47D0B5F5003F4AD1AF
:107320003DE0A0680121FFF7CCFF064645E0A068DC
:107330004FF48071FFF7C5FF06463EE0A0684FF4AA
:107340008031FFF7BEFF064637E0E0680821FFF70F
:10735000B8FF064631E0E0681021FFF7B2FF0646AD
:107360002BE020690821FFF7ACFF064625E02069E5
:107370001021FFF7A6FF06461FE0A0690121FFF7D5
:10738000A0FF064619E0A0690221FFF79AFF064612
:1073900013E0A0690421FFF794FF06460DE0606842
:1073A0001021FFF78EFF064607E060680821FFF70F
:1073B00088FF064601E0002600BF00BF304670BDD2
:1073C000402935D00EDC072925D006DC042926D03B
:1073D000052919D0062943D119E0082922D02029EE
:1073E0003ED122E0B1F5806F2FD006DCB1F5807F71
:1073F00021D0B1F5007F33D122E0B1F5803F29D013
:10740000B1F5003F2CD128E00122826029E04FF441
:107410008072826025E04FF48032826021E0082291
:10742000C2601EE01022C2601BE00822026118E068
:107430001022026115E0826922F00102826110E0EF
:10744000826922F0020282610BE0826922F004026A
:10745000826106E00822426003E01022426000E000
:1074600000BF00BF70470000002044490860091DAC
:107470000860091D0860091D086041483F49143132
:107480000860704700213D498279002A3AD00A46B7
:10749000126803689A430B461A600A1D1268036853
:1074A0009A430B1D1A60027911440A6803681A4353
:1074B0000A60324A0832126803689A432F4B083335
:1074C0001A601A1D126803689A432C4B0C331A6019
:1074D0004279102A0ED11A1F126803681A43274BEB
:1074E00008331A601A1D126803681A43234B0C33C1
:1074F0001A600DE02149427911440A6803681A4371
:107500000A6005E0027911440A6803689A430A6038
:1075100070470021016001710C21417100218171CE
:1075200070471649103109680143144A103211603E
:10753000704701460020114A143212680A4201D0F5
:10754000012000E0002070470C49143108607047AA
:10755000014600200022094B1B6803EA0102074B89
:1075600014331B680B4202D00AB1012000E0002056
:107570007047024914310860704700000004014060
:10758000FFFF0F0001460020FE4A106800F038009F
:10759000084310607047FB49096821F00801F94A67
:1075A000116011460968014311607047F549096887
:1075B00021F01001F34A116011460968014311607E
:1075C0007047F148EF494860F04848607047EE481E
:1075D000EC494860ED4848607047EA48006940F06F
:1075E0008000E84908617047E648006940F0800083
:1075F000E449086170470420E249C96811F0010FAD
:1076000001D001200EE0DF49C96811F0040F01D05C
:10761000022007E0DB49C96811F0100F01D00320F8
:1076200000E00420704700B502460423FFF7E3FFA3
:10763000034603E0FFF7DFFF0346521E012B01D193
:10764000002AF7D102B90523184600BD30B505461A
:1076500004244FF43020FFF7E6FF0446042C19D130
:10766000C848006940F00200C64908610846456103
:10767000006940F0400008614FF43020FFF7D3FF6D
:107680000446052C06D0BF48006941F6FD7108404C
:10769000BC490861204630BD10B504244FF43020A9
:1076A000FFF7C1FF0446042C18D1B648006940F02A
:1076B0000400B44908610846006940F040000861D0
:1076C0004FF43020FFF7AFFF0446052C06D0AD483D
:1076D000006941F6FB710840AA490861204610BDC7
:1076E00000B502460423FFF786FF034603E0FFF7D9
:1076F00082FF0346521E012B01D1002AF7D102B9A5
:107700000523184600BD10B504244FF43020FFF7C0
:10771000E7FF0446042C18D19A48006940F00400A1
:10772000984908610846006940F0400008614FF43C
:107730003020FFF7D5FF0446052C06D0914800699C
:1077400041F6FB7108408F490861204610BD0020BA
:107750008C49C96911F0020F01D0012000E000201E
:10776000704730B5A5250424FFF7F1FF00B10025CF
:107770004FF43020FFF757FF0446042C3AD18248DB
:1077800080498860814888600846006940F0200090
:1077900008610846006940F0400008614FF430205D
:1077A000FFF741FF0446042C1BD17648006941F6DF
:1077B000DF710840734908610846006940F0100015
:1077C000086173480580E002FFF72DFF0446052C91
:1077D00010D06C48006941F6EF71084069490861B2
:1077E00008E0052C06D06748006941F6EF710840B3
:1077F00064490861204630BD78B506460D4604242C
:1078000000200090E002FFF70EFF0446042C28D170
:107810005C48006940F001005A4908613580E00287
:10782000FFF701FF0446042C12D1B01C0090280C75
:1078300000990880E002FFF7F6FE0446052C10D000
:107840005048006941F6FE7108404E49086108E061
:10785000052C06D04B48006941F6FE7108404949A5
:107860000861204678BD70B505460E460424E00246
:10787000FFF7D9FE0446042C13D14248006940F0BA
:107880000100404908612E80E002FFF7CCFE04466B
:10789000052C06D03B48006941F6FE710840394985
:1078A0000861204670BD70B505460E460424E0020E
:1078B000FFF7B9FE0446042C17D1334831498860DC
:1078C000324888600846006940F0100008612E8048
:1078D000E002FFF7A8FE0446052C06D029480069FF
:1078E00041F6EF71084027490861204670BD2DE937
:1078F000F04304464FF6FF763746B046B1460425BE
:10790000E443E6B2C4F30727C4F307484FEA146917
:10791000E802FFF788FE0546042D4AD11A481949A6
:1079200088601A4888600846006940F010000861C5
:10793000FF2E06D0164808300680E802FFF773FED7
:107940000546042D08D1FF2F06D011480A300780C4
:10795000E802FFF768FE0546042D0AD1B8F1FF0FD3
:1079600007D00B480C30A0F80080E802FFF75BFE60
:107970000546042D14D1B9F1FF0F11D004480E3083
:1079800008E000000020024023016745AB89EFCDED
:1079900000F8FF1FA0F80090E802FFF744FE05463C
:1079A000052D06D06848006941F6EF710840664928
:1079B00008612846BDE8F08330B5054604244FF43D
:1079C0003020FFF730FE0446042C41D15F485E4969
:1079D00088605F4888600846006940F020000861C0
:1079E0000846006940F0400008614FF43020FFF77E
:1079F0001AFE0446042C22D15348006941F6DF7177
:107A00000840514908610846006940F010000861CB
:107A10001DB100204F49088002E0A5204D49088093
:107A20004FF43020FFF7FFFD0446052C10D04648E8
:107A3000006941F6EF7108404349086108E0052CF0
:107A400006D04148006941F6DF7108403E490861AF
:107A5000204630BDF0B505460E46174604243B4887
:107A6000394988603A488860E002FFF7DCFD044647
:107A7000042C19D13448006940F0100032490861E3
:107A800047F0F800304328433249891C0880E0025F
:107A9000FFF7C9FD0446052C06D02B48006941F6C6
:107AA000EF710840284908612046F0BD2648C069AA
:107AB000800870472448006A7047002022490968FE
:107AC00011F0200F01D0012000E00020704729B103
:107AD0001D4A126902431C4B1A6104E01A4A1269DA
